{
  "contractName": "CaseAccessControl",
  "abi": [
    {
      "inputs": [],
      "stateMutability": "nonpayable",
      "type": "constructor"
    },
    {
      "anonymous": false,
      "inputs": [
        {
          "indexed": true,
          "internalType": "bytes32",
          "name": "caseId",
          "type": "bytes32"
        },
        {
          "indexed": true,
          "internalType": "address",
          "name": "user",
          "type": "address"
        }
      ],
      "name": "AccessGranted",
      "type": "event"
    },
    {
      "anonymous": false,
      "inputs": [
        {
          "indexed": true,
          "internalType": "bytes32",
          "name": "caseId",
          "type": "bytes32"
        },
        {
          "indexed": true,
          "internalType": "address",
          "name": "user",
          "type": "address"
        }
      ],
      "name": "AccessRevoked",
      "type": "event"
    },
    {
      "anonymous": false,
      "inputs": [
        {
          "indexed": true,
          "internalType": "bytes32",
          "name": "caseId",
          "type": "bytes32"
        },
        {
          "indexed": true,
          "internalType": "address",
          "name": "newAdmin",
          "type": "address"
        }
      ],
      "name": "CaseAdminChanged",
      "type": "event"
    },
    {
      "anonymous": false,
      "inputs": [
        {
          "indexed": true,
          "internalType": "bytes32",
          "name": "caseId",
          "type": "bytes32"
        }
      ],
      "name": "CaseClosed",
      "type": "event"
    },
    {
      "anonymous": false,
      "inputs": [
        {
          "indexed": true,
          "internalType": "bytes32",
          "name": "caseId",
          "type": "bytes32"
        },
        {
          "indexed": true,
          "internalType": "address",
          "name": "admin",
          "type": "address"
        }
      ],
      "name": "CaseRegistered",
      "type": "event"
    },
    {
      "inputs": [
        {
          "internalType": "bytes32",
          "name": "",
          "type": "bytes32"
        },
        {
          "internalType": "address",
          "name": "",
          "type": "address"
        }
      ],
      "name": "access",
      "outputs": [
        {
          "internalType": "bool",
          "name": "",
          "type": "bool"
        }
      ],
      "stateMutability": "view",
      "type": "function",
      "constant": true
    },
    {
      "inputs": [
        {
          "internalType": "bytes32",
          "name": "",
          "type": "bytes32"
        }
      ],
      "name": "cases",
      "outputs": [
        {
          "internalType": "address",
          "name": "admin",
          "type": "address"
        },
        {
          "internalType": "bool",
          "name": "isClosed",
          "type": "bool"
        }
      ],
      "stateMutability": "view",
      "type": "function",
      "constant": true
    },
    {
      "inputs": [],
      "name": "owner",
      "outputs": [
        {
          "internalType": "address",
          "name": "",
          "type": "address"
        }
      ],
      "stateMutability": "view",
      "type": "function",
      "constant": true
    },
    {
      "inputs": [
        {
          "internalType": "bytes32",
          "name": "caseId",
          "type": "bytes32"
        },
        {
          "internalType": "address",
          "name": "admin",
          "type": "address"
        }
      ],
      "name": "registerCase",
      "outputs": [],
      "stateMutability": "nonpayable",
      "type": "function"
    },
    {
      "inputs": [
        {
          "internalType": "bytes32",
          "name": "caseId",
          "type": "bytes32"
        },
        {
          "internalType": "address",
          "name": "user",
          "type": "address"
        }
      ],
      "name": "grantAccess",
      "outputs": [],
      "stateMutability": "nonpayable",
      "type": "function"
    },
    {
      "inputs": [
        {
          "internalType": "bytes32",
          "name": "caseId",
          "type": "bytes32"
        },
        {
          "internalType": "address",
          "name": "user",
          "type": "address"
        }
      ],
      "name": "revokeAccess",
      "outputs": [],
      "stateMutability": "nonpayable",
      "type": "function"
    },
    {
      "inputs": [
        {
          "internalType": "bytes32",
          "name": "caseId",
          "type": "bytes32"
        },
        {
          "internalType": "address",
          "name": "user",
          "type": "address"
        }
      ],
      "name": "hasAccess",
      "outputs": [
        {
          "internalType": "bool",
          "name": "",
          "type": "bool"
        }
      ],
      "stateMutability": "view",
      "type": "function",
      "constant": true
    },
    {
      "inputs": [
        {
          "internalType": "bytes32",
          "name": "caseId",
          "type": "bytes32"
        },
        {
          "internalType": "address",
          "name": "newAdmin",
          "type": "address"
        }
      ],
      "name": "transferCaseOwnership",
      "outputs": [],
      "stateMutability": "nonpayable",
      "type": "function"
    },
    {
      "inputs": [
        {
          "internalType": "bytes32",
          "name": "caseId",
          "type": "bytes32"
        }
      ],
      "name": "closeCase",
      "outputs": [],
      "stateMutability": "nonpayable",
      "type": "function"
    }
  ],
  "bytecode": "0x608060405234801561000f575f80fd5b50335f806101000a81548173ffffffffffffffffffffffffffffffffffffffff021916908373ffffffffffffffffffffffffffffffffffffffff1602179055506110118061005c5f395ff3fe608060405234801561000f575f80fd5b5060043610610091575f3560e01c80634e58ed90116100645780634e58ed901461011a57806377e2e8311461013657806383177db3146101665780638d53b208146101965780638da5cb5b146101b257610091565b8063383b6e7b1461009557806340554c3a146100b157806348ea1c23146100cd5780634e04d799146100fe575b5f80fd5b6100af60048036038101906100aa9190610c70565b6101d0565b005b6100cb60048036038101906100c69190610c70565b610457565b005b6100e760048036038101906100e29190610cae565b610590565b6040516100f5929190610d02565b60405180910390f35b61011860048036038101906101139190610cae565b6105db565b005b610134600480360381019061012f9190610c70565b6107c4565b005b610150600480360381019061014b9190610c70565b6109f8565b60405161015d9190610d29565b60405180910390f35b610180600480360381019061017b9190610c70565b610a22565b60405161018d9190610d29565b60405180910390f35b6101b060048036038101906101ab9190610c70565b610a84565b005b6101ba610bbc565b6040516101c79190610d42565b60405180910390f35b5f8054906101000a900473ffffffffffffffffffffffffffffffffffffffff1673ffffffffffffffffffffffffffffffffffffffff163373ffffffffffffffffffffffffffffffffffffffff161461025d576040517f08c379a000000000000000000000000000000000000000000000000000000000815260040161025490610db5565b60405180910390fd5b5f73ffffffffffffffffffffffffffffffffffffffff168173ffffffffffffffffffffffffffffffffffffffff16036102cb576040517f08c379a00000000000000000000000000000000000000000000000000000000081526004016102c290610e1d565b60405180910390fd5b5f73ffffffffffffffffffffffffffffffffffffffff1660015f8481526020019081526020015f205f015f9054906101000a900473ffffffffffffffffffffffffffffffffffffffff1673ffffffffffffffffffffffffffffffffffffffff161461036b576040517f08c379a000000000000000000000000000000000000000000000000000000000815260040161036290610e85565b60405180910390fd5b60405180604001604052808273ffffffffffffffffffffffffffffffffffffffff1681526020015f151581525060015f8481526020019081526020015f205f820151815f015f6101000a81548173ffffffffffffffffffffffffffffffffffffffff021916908373ffffffffffffffffffffffffffffffffffffffff1602179055506020820151815f0160146101000a81548160ff0219169083151502179055509050508073ffffffffffffffffffffffffffffffffffffffff16827fbb4f24aa298eb5cdede0df51364443f4555ac04bf02820d094f33290f82228a960405160405180910390a35050565b5f8054906101000a900473ffffffffffffffffffffffffffffffffffffffff1673ffffffffffffffffffffffffffffffffffffffff163373ffffffffffffffffffffffffffffffffffffffff16146104e4576040517f08c379a00000000000000000000000000000000000000000000000000000000081526004016104db90610db5565b60405180910390fd5b600160025f8481526020019081526020015f205f8373ffffffffffffffffffffffffffffffffffffffff1673ffffffffffffffffffffffffffffffffffffffff1681526020019081526020015f205f6101000a81548160ff0219169083151502179055508073ffffffffffffffffffffffffffffffffffffffff16827ff20afd7b032307b01752ee91e3f6a4b83a5b4ab631f9ab279322fd45634382c060405160405180910390a35050565b6001602052805f5260405f205f91509050805f015f9054906101000a900473ffffffffffffffffffffffffffffffffffffffff1690805f0160149054906101000a900460ff16905082565b5f8054906101000a900473ffffffffffffffffffffffffffffffffffffffff1673ffffffffffffffffffffffffffffffffffffffff163373ffffffffffffffffffffffffffffffffffffffff1614610668576040517f08c379a000000000000000000000000000000000000000000000000000000000815260040161065f90610db5565b60405180910390fd5b5f73ffffffffffffffffffffffffffffffffffffffff1660015f8381526020019081526020015f205f015f9054906101000a900473ffffffffffffffffffffffffffffffffffffffff1673ffffffffffffffffffffffffffffffffffffffff1603610708576040517f08c379a00000000000000000000000000000000000000000000000000000000081526004016106ff90610eed565b60405180910390fd5b60015f8281526020019081526020015f205f0160149054906101000a900460ff1615610769576040517f08c379a000000000000000000000000000000000000000000000000000000000815260040161076090610f55565b60405180910390fd5b6001805f8381526020019081526020015f205f0160146101000a81548160ff021916908315150217905550807f5dd5aa2fd9d5c9ff623a9761756b30de20c58adbe5577fb688a2912ae299531960405160405180910390a250565b5f8054906101000a900473ffffffffffffffffffffffffffffffffffffffff1673ffffffffffffffffffffffffffffffffffffffff163373ffffffffffffffffffffffffffffffffffffffff1614610851576040517f08c379a000000000000000000000000000000000000000000000000000000000815260040161084890610db5565b60405180910390fd5b5f73ffffffffffffffffffffffffffffffffffffffff168173ffffffffffffffffffffffffffffffffffffffff16036108bf576040517f08c379a00000000000000000000000000000000000000000000000000000000081526004016108b690610fbd565b60405180910390fd5b5f73ffffffffffffffffffffffffffffffffffffffff1660015f8481526020019081526020015f205f015f9054906101000a900473ffffffffffffffffffffffffffffffffffffffff1673ffffffffffffffffffffffffffffffffffffffff160361095f576040517f08c379a000000000000000000000000000000000000000000000000000000000815260040161095690610eed565b60405180910390fd5b8060015f8481526020019081526020015f205f015f6101000a81548173ffffffffffffffffffffffffffffffffffffffff021916908373ffffffffffffffffffffffffffffffffffffffff1602179055508073ffffffffffffffffffffffffffffffffffffffff16827f83f373b86fce2f53fb93d1afbadc79b995289c29093a718b235a2703441a44a560405160405180910390a35050565b6002602052815f5260405f20602052805f5260405f205f915091509054906101000a900460ff1681565b5f60025f8481526020019081526020015f205f8373ffffffffffffffffffffffffffffffffffffffff1673ffffffffffffffffffffffffffffffffffffffff1681526020019081526020015f205f9054906101000a900460ff16905092915050565b5f8054906101000a900473ffffffffffffffffffffffffffffffffffffffff1673ffffffffffffffffffffffffffffffffffffffff163373ffffffffffffffffffffffffffffffffffffffff1614610b11576040517f08c379a0000000000000000000000000000000000000000000000000000000008152600401610b0890610db5565b60405180910390fd5b5f60025f8481526020019081526020015f205f8373ffffffffffffffffffffffffffffffffffffffff1673ffffffffffffffffffffffffffffffffffffffff1681526020019081526020015f205f6101000a81548160ff0219169083151502179055508073ffffffffffffffffffffffffffffffffffffffff16827fe7906b77ea165c70ad8268ce5b59b778a198edf9c1ae4118378eefdc76fce5f460405160405180910390a35050565b5f8054906101000a900473ffffffffffffffffffffffffffffffffffffffff1681565b5f80fd5b5f819050919050565b610bf581610be3565b8114610bff575f80fd5b50565b5f81359050610c1081610bec565b92915050565b5f73ffffffffffffffffffffffffffffffffffffffff82169050919050565b5f610c3f82610c16565b9050919050565b610c4f81610c35565b8114610c59575f80fd5b50565b5f81359050610c6a81610c46565b92915050565b5f8060408385031215610c8657610c85610bdf565b5b5f610c9385828601610c02565b9250506020610ca485828601610c5c565b9150509250929050565b5f60208284031215610cc357610cc2610bdf565b5b5f610cd084828501610c02565b91505092915050565b610ce281610c35565b82525050565b5f8115159050919050565b610cfc81610ce8565b82525050565b5f604082019050610d155f830185610cd9565b610d226020830184610cf3565b9392505050565b5f602082019050610d3c5f830184610cf3565b92915050565b5f602082019050610d555f830184610cd9565b92915050565b5f82825260208201905092915050565b7f4f6e6c79206f776e65722063616e206d6f6469667920616363657373000000005f82015250565b5f610d9f601c83610d5b565b9150610daa82610d6b565b602082019050919050565b5f6020820190508181035f830152610dcc81610d93565b9050919050565b7f496e76616c69642061646d696e206164647265737300000000000000000000005f82015250565b5f610e07601583610d5b565b9150610e1282610dd3565b602082019050919050565b5f6020820190508181035f830152610e3481610dfb565b9050919050565b7f4361736520616c726561647920726567697374657265640000000000000000005f82015250565b5f610e6f601783610d5b565b9150610e7a82610e3b565b602082019050919050565b5f6020820190508181035f830152610e9c81610e63565b9050919050565b7f43617365206e6f742072656769737465726564000000000000000000000000005f82015250565b5f610ed7601383610d5b565b9150610ee282610ea3565b602082019050919050565b5f6020820190508181035f830152610f0481610ecb565b9050919050565b7f4361736520616c726561647920636c6f736564000000000000000000000000005f82015250565b5f610f3f601383610d5b565b9150610f4a82610f0b565b602082019050919050565b5f6020820190508181035f830152610f6c81610f33565b9050919050565b7f496e76616c6964206164647265737300000000000000000000000000000000005f82015250565b5f610fa7600f83610d5b565b9150610fb282610f73565b602082019050919050565b5f6020820190508181035f830152610fd481610f9b565b905091905056fea2646970667358221220eb5af771d02a9762ec870471788b3a6fa577bdffcf7b1da3d840e5f9904aa64964736f6c63430008140033",
  "immutableReferences": {},
  "source": "// SPDX-License-Identifier: MIT\r\npragma solidity ^0.8.20;\r\n\r\ncontract CaseAccessControl {\r\n    address public owner;\r\n\r\n    struct CaseMetadata {\r\n        address admin;\r\n        bool isClosed;\r\n    }\r\n\r\n    mapping(bytes32 => CaseMetadata) public cases;\r\n    mapping(bytes32 => mapping(address => bool)) public access;\r\n\r\n    event AccessGranted(bytes32 indexed caseId, address indexed user);\r\n    event AccessRevoked(bytes32 indexed caseId, address indexed user);\r\n    event CaseRegistered(bytes32 indexed caseId, address indexed admin);\r\n    event CaseClosed(bytes32 indexed caseId);\r\n    event CaseAdminChanged(bytes32 indexed caseId, address indexed newAdmin);\r\n\r\n    constructor() {\r\n        owner = msg.sender;\r\n    }\r\n\r\n    modifier onlyOwner() {\r\n        require(msg.sender == owner, \"Only owner can modify access\");\r\n        _;\r\n    }\r\n\r\n    modifier onlyCaseAdmin(bytes32 caseId) {\r\n        require(cases[caseId].admin == msg.sender, \"Only case admin allowed\");\r\n        _;\r\n    }\r\n\r\n    function registerCase(bytes32 caseId, address admin) external onlyOwner {\r\n        require(admin != address(0), \"Invalid admin address\");\r\n        require(cases[caseId].admin == address(0), \"Case already registered\");\r\n\r\n        cases[caseId] = CaseMetadata({admin: admin, isClosed: false});\r\n\r\n        emit CaseRegistered(caseId, admin);\r\n    }\r\n\r\n    function grantAccess(bytes32 caseId, address user) external onlyOwner {\r\n        access[caseId][user] = true;\r\n        emit AccessGranted(caseId, user);\r\n    }\r\n\r\n    function revokeAccess(bytes32 caseId, address user) external onlyOwner {\r\n        access[caseId][user] = false;\r\n        emit AccessRevoked(caseId, user);\r\n    }\r\n\r\n    function hasAccess(\r\n        bytes32 caseId,\r\n        address user\r\n    ) external view returns (bool) {\r\n        return access[caseId][user];\r\n    }\r\n\r\n    function transferCaseOwnership(\r\n        bytes32 caseId,\r\n        address newAdmin\r\n    ) external onlyOwner {\r\n        require(newAdmin != address(0), \"Invalid address\");\r\n        require(cases[caseId].admin != address(0), \"Case not registered\");\r\n        cases[caseId].admin = newAdmin;\r\n        emit CaseAdminChanged(caseId, newAdmin);\r\n    }\r\n\r\n    function closeCase(bytes32 caseId) external onlyOwner {\r\n        require(cases[caseId].admin != address(0), \"Case not registered\");\r\n        require(!cases[caseId].isClosed, \"Case already closed\");\r\n        cases[caseId].isClosed = true;\r\n        emit CaseClosed(caseId);\r\n    }\r\n}\r\n",
  "sourcePath": "D:\\Documents\\Learning\\7th-sem\\Major-Project\\Major-Project-Backend\\src\\contracts\\CaseAccessControl.sol",
  "compiler": {
    "name": "solc",
    "version": "0.8.20+commit.a1b79de6.Emscripten.clang"
  },
  "schemaVersion": "3.4.16",
  "updatedAt": "2025-08-02T06:28:36.299Z",
  "networkType": "ethereum",
  "devdoc": {
    "kind": "dev",
    "methods": {},
    "version": 1
  },
  "userdoc": {
    "kind": "user",
    "methods": {},
    "version": 1
  }
}