{
  "contractName": "CaseAccessControl",
  "abi": [
    {
      "inputs": [],
      "stateMutability": "nonpayable",
      "type": "constructor"
    },
    {
      "anonymous": false,
      "inputs": [
        {
          "indexed": true,
          "internalType": "bytes32",
          "name": "caseId",
          "type": "bytes32"
        },
        {
          "indexed": true,
          "internalType": "address",
          "name": "user",
          "type": "address"
        }
      ],
      "name": "AccessGranted",
      "type": "event"
    },
    {
      "anonymous": false,
      "inputs": [
        {
          "indexed": true,
          "internalType": "bytes32",
          "name": "caseId",
          "type": "bytes32"
        },
        {
          "indexed": true,
          "internalType": "address",
          "name": "user",
          "type": "address"
        }
      ],
      "name": "AccessRevoked",
      "type": "event"
    },
    {
      "anonymous": false,
      "inputs": [
        {
          "indexed": true,
          "internalType": "bytes32",
          "name": "caseId",
          "type": "bytes32"
        },
        {
          "indexed": true,
          "internalType": "address",
          "name": "newAdmin",
          "type": "address"
        }
      ],
      "name": "CaseAdminChanged",
      "type": "event"
    },
    {
      "inputs": [
        {
          "internalType": "bytes32",
          "name": "",
          "type": "bytes32"
        },
        {
          "internalType": "address",
          "name": "",
          "type": "address"
        }
      ],
      "name": "access",
      "outputs": [
        {
          "internalType": "bool",
          "name": "",
          "type": "bool"
        }
      ],
      "stateMutability": "view",
      "type": "function",
      "constant": true
    },
    {
      "inputs": [
        {
          "internalType": "bytes32",
          "name": "",
          "type": "bytes32"
        }
      ],
      "name": "caseAdmins",
      "outputs": [
        {
          "internalType": "address",
          "name": "",
          "type": "address"
        }
      ],
      "stateMutability": "view",
      "type": "function",
      "constant": true
    },
    {
      "inputs": [],
      "name": "owner",
      "outputs": [
        {
          "internalType": "address",
          "name": "",
          "type": "address"
        }
      ],
      "stateMutability": "view",
      "type": "function",
      "constant": true
    },
    {
      "inputs": [
        {
          "internalType": "bytes32",
          "name": "caseId",
          "type": "bytes32"
        },
        {
          "internalType": "address",
          "name": "user",
          "type": "address"
        }
      ],
      "name": "grantAccess",
      "outputs": [],
      "stateMutability": "nonpayable",
      "type": "function"
    },
    {
      "inputs": [
        {
          "internalType": "bytes32",
          "name": "caseId",
          "type": "bytes32"
        },
        {
          "internalType": "address",
          "name": "user",
          "type": "address"
        }
      ],
      "name": "revokeAccess",
      "outputs": [],
      "stateMutability": "nonpayable",
      "type": "function"
    },
    {
      "inputs": [
        {
          "internalType": "bytes32",
          "name": "caseId",
          "type": "bytes32"
        },
        {
          "internalType": "address",
          "name": "user",
          "type": "address"
        }
      ],
      "name": "hasAccess",
      "outputs": [
        {
          "internalType": "bool",
          "name": "",
          "type": "bool"
        }
      ],
      "stateMutability": "view",
      "type": "function",
      "constant": true
    },
    {
      "inputs": [
        {
          "internalType": "bytes32",
          "name": "caseId",
          "type": "bytes32"
        },
        {
          "internalType": "address",
          "name": "newAdmin",
          "type": "address"
        }
      ],
      "name": "transferCaseOwnership",
      "outputs": [],
      "stateMutability": "nonpayable",
      "type": "function"
    }
  ],
  "bytecode": "0x608060405234801561000f575f80fd5b50335f806101000a81548173ffffffffffffffffffffffffffffffffffffffff021916908373ffffffffffffffffffffffffffffffffffffffff1602179055506108cd8061005c5f395ff3fe608060405234801561000f575f80fd5b506004361061007b575f3560e01c806377e2e8311161005957806377e2e831146100e757806383177db3146101175780638d53b208146101475780638da5cb5b146101635761007b565b80631c87a65c1461007f57806340554c3a146100af5780634e58ed90146100cb575b5f80fd5b61009960048036038101906100949190610699565b610181565b6040516100a69190610703565b60405180910390f35b6100c960048036038101906100c49190610746565b6101b1565b005b6100e560048036038101906100e09190610746565b6102e9565b005b61010160048036038101906100fc9190610746565b61047b565b60405161010e919061079e565b60405180910390f35b610131600480360381019061012c9190610746565b6104a5565b60405161013e919061079e565b60405180910390f35b610161600480360381019061015c9190610746565b610507565b005b61016b61063f565b6040516101789190610703565b60405180910390f35b6002602052805f5260405f205f915054906101000a900473ffffffffffffffffffffffffffffffffffffffff1681565b5f8054906101000a900473ffffffffffffffffffffffffffffffffffffffff1673ffffffffffffffffffffffffffffffffffffffff163373ffffffffffffffffffffffffffffffffffffffff161461023e576040517f08c379a000000000000000000000000000000000000000000000000000000000815260040161023590610811565b60405180910390fd5b6001805f8481526020019081526020015f205f8373ffffffffffffffffffffffffffffffffffffffff1673ffffffffffffffffffffffffffffffffffffffff1681526020019081526020015f205f6101000a81548160ff0219169083151502179055508073ffffffffffffffffffffffffffffffffffffffff16827ff20afd7b032307b01752ee91e3f6a4b83a5b4ab631f9ab279322fd45634382c060405160405180910390a35050565b5f8054906101000a900473ffffffffffffffffffffffffffffffffffffffff1673ffffffffffffffffffffffffffffffffffffffff163373ffffffffffffffffffffffffffffffffffffffff1614610376576040517f08c379a000000000000000000000000000000000000000000000000000000000815260040161036d90610811565b60405180910390fd5b5f73ffffffffffffffffffffffffffffffffffffffff168173ffffffffffffffffffffffffffffffffffffffff16036103e4576040517f08c379a00000000000000000000000000000000000000000000000000000000081526004016103db90610879565b60405180910390fd5b8060025f8481526020019081526020015f205f6101000a81548173ffffffffffffffffffffffffffffffffffffffff021916908373ffffffffffffffffffffffffffffffffffffffff1602179055508073ffffffffffffffffffffffffffffffffffffffff16827f83f373b86fce2f53fb93d1afbadc79b995289c29093a718b235a2703441a44a560405160405180910390a35050565b6001602052815f5260405f20602052805f5260405f205f915091509054906101000a900460ff1681565b5f60015f8481526020019081526020015f205f8373ffffffffffffffffffffffffffffffffffffffff1673ffffffffffffffffffffffffffffffffffffffff1681526020019081526020015f205f9054906101000a900460ff16905092915050565b5f8054906101000a900473ffffffffffffffffffffffffffffffffffffffff1673ffffffffffffffffffffffffffffffffffffffff163373ffffffffffffffffffffffffffffffffffffffff1614610594576040517f08c379a000000000000000000000000000000000000000000000000000000000815260040161058b90610811565b60405180910390fd5b5f60015f8481526020019081526020015f205f8373ffffffffffffffffffffffffffffffffffffffff1673ffffffffffffffffffffffffffffffffffffffff1681526020019081526020015f205f6101000a81548160ff0219169083151502179055508073ffffffffffffffffffffffffffffffffffffffff16827fe7906b77ea165c70ad8268ce5b59b778a198edf9c1ae4118378eefdc76fce5f460405160405180910390a35050565b5f8054906101000a900473ffffffffffffffffffffffffffffffffffffffff1681565b5f80fd5b5f819050919050565b61067881610666565b8114610682575f80fd5b50565b5f813590506106938161066f565b92915050565b5f602082840312156106ae576106ad610662565b5b5f6106bb84828501610685565b91505092915050565b5f73ffffffffffffffffffffffffffffffffffffffff82169050919050565b5f6106ed826106c4565b9050919050565b6106fd816106e3565b82525050565b5f6020820190506107165f8301846106f4565b92915050565b610725816106e3565b811461072f575f80fd5b50565b5f813590506107408161071c565b92915050565b5f806040838503121561075c5761075b610662565b5b5f61076985828601610685565b925050602061077a85828601610732565b9150509250929050565b5f8115159050919050565b61079881610784565b82525050565b5f6020820190506107b15f83018461078f565b92915050565b5f82825260208201905092915050565b7f4f6e6c79206f776e65722063616e206d6f6469667920616363657373000000005f82015250565b5f6107fb601c836107b7565b9150610806826107c7565b602082019050919050565b5f6020820190508181035f830152610828816107ef565b9050919050565b7f496e76616c6964206164647265737300000000000000000000000000000000005f82015250565b5f610863600f836107b7565b915061086e8261082f565b602082019050919050565b5f6020820190508181035f83015261089081610857565b905091905056fea2646970667358221220f576bacf7623274874c980e388d4ccc6be7dcd87db7815a5d99a32049b6dd00564736f6c63430008140033",
  "immutableReferences": {},
  "source": "// SPDX-License-Identifier: MIT\r\npragma solidity ^0.8.20;\r\n\r\ncontract CaseAccessControl {\r\n    address public owner;\r\n\r\n    mapping(bytes32 => mapping(address => bool)) public access;\r\n\r\n    event AccessGranted(bytes32 indexed caseId, address indexed user);\r\n    event AccessRevoked(bytes32 indexed caseId, address indexed user);\r\n\r\n    mapping(bytes32 => address) public caseAdmins;\r\n\r\n    event CaseAdminChanged(bytes32 indexed caseId, address indexed newAdmin);\r\n\r\n    constructor() {\r\n        owner = msg.sender;\r\n    }\r\n\r\n    modifier onlyOwner() {\r\n        require(msg.sender == owner, \"Only owner can modify access\");\r\n        _;\r\n    }\r\n\r\n    function grantAccess(bytes32 caseId, address user) external onlyOwner {\r\n        access[caseId][user] = true;\r\n        emit AccessGranted(caseId, user);\r\n    }\r\n\r\n    function revokeAccess(bytes32 caseId, address user) external onlyOwner {\r\n        access[caseId][user] = false;\r\n        emit AccessRevoked(caseId, user);\r\n    }\r\n\r\n    function hasAccess(\r\n        bytes32 caseId,\r\n        address user\r\n    ) external view returns (bool) {\r\n        return access[caseId][user];\r\n    }\r\n\r\n    function transferCaseOwnership(\r\n        bytes32 caseId,\r\n        address newAdmin\r\n    ) external onlyOwner {\r\n        require(newAdmin != address(0), \"Invalid address\");\r\n        caseAdmins[caseId] = newAdmin;\r\n        emit CaseAdminChanged(caseId, newAdmin);\r\n    }\r\n}\r\n",
  "sourcePath": "D:\\Documents\\Learning\\7th-sem\\Major-Project\\Major-Project-Backend\\src\\contracts\\CaseAccessControl.sol",
  "compiler": {
    "name": "solc",
    "version": "0.8.20+commit.a1b79de6.Emscripten.clang"
  },
  "schemaVersion": "3.4.16",
  "updatedAt": "2025-04-24T06:56:30.136Z",
  "networkType": "ethereum",
  "devdoc": {
    "kind": "dev",
    "methods": {},
    "version": 1
  },
  "userdoc": {
    "kind": "user",
    "methods": {},
    "version": 1
  }
}